{
  "contractName": "BasicMath",
  "abi": [
    {
      "inputs": [
        {
          "internalType": "uint256",
          "name": "a",
          "type": "uint256"
        },
        {
          "internalType": "uint256",
          "name": "b",
          "type": "uint256"
        }
      ],
      "name": "add",
      "outputs": [
        {
          "internalType": "uint256",
          "name": "",
          "type": "uint256"
        }
      ],
      "stateMutability": "pure",
      "type": "function",
      "constant": true
    },
    {
      "inputs": [
        {
          "internalType": "uint256",
          "name": "a",
          "type": "uint256"
        },
        {
          "internalType": "uint256",
          "name": "b",
          "type": "uint256"
        }
      ],
      "name": "subtract",
      "outputs": [
        {
          "internalType": "uint256",
          "name": "",
          "type": "uint256"
        }
      ],
      "stateMutability": "pure",
      "type": "function",
      "constant": true
    },
    {
      "inputs": [
        {
          "internalType": "uint256",
          "name": "a",
          "type": "uint256"
        },
        {
          "internalType": "uint256",
          "name": "b",
          "type": "uint256"
        }
      ],
      "name": "multiply",
      "outputs": [
        {
          "internalType": "uint256",
          "name": "",
          "type": "uint256"
        }
      ],
      "stateMutability": "pure",
      "type": "function",
      "constant": true
    },
    {
      "inputs": [
        {
          "internalType": "uint256",
          "name": "a",
          "type": "uint256"
        },
        {
          "internalType": "uint256",
          "name": "b",
          "type": "uint256"
        }
      ],
      "name": "divide",
      "outputs": [
        {
          "internalType": "uint256",
          "name": "",
          "type": "uint256"
        }
      ],
      "stateMutability": "pure",
      "type": "function",
      "constant": true
    }
  ],
  "bytecode": "0x608060405234801561001057600080fd5b50610462806100206000396000f3fe608060405234801561001057600080fd5b506004361061004c5760003560e01c8063165c4a16146100515780633ef5e44514610081578063771602f7146100b1578063f88e9fbf146100e1575b600080fd5b61006b600480360381019061006691906101c1565b610111565b604051610078919061026c565b60405180910390f35b61009b600480360381019061009691906101c1565b610127565b6040516100a8919061026c565b60405180910390f35b6100cb60048036038101906100c691906101c1565b61013d565b6040516100d8919061026c565b60405180910390f35b6100fb60048036038101906100f691906101c1565b610153565b604051610108919061026c565b60405180910390f35b6000818361011f919061031f565b905092915050565b600081836101359190610379565b905092915050565b6000818361014b9190610298565b905092915050565b600080821415610198576040517f08c379a000000000000000000000000000000000000000000000000000000000815260040161018f9061024c565b60405180910390fd5b81836101a491906102ee565b905092915050565b6000813590506101bb81610415565b92915050565b600080604083850312156101d457600080fd5b60006101e2858286016101ac565b92505060206101f3858286016101ac565b9150509250929050565b600061020a602083610287565b91507f4469766973696f6e206279207a65726f206973206e6f7420616c6c6f7765642e6000830152602082019050919050565b610246816103ad565b82525050565b60006020820190508181036000830152610265816101fd565b9050919050565b6000602082019050610281600083018461023d565b92915050565b600082825260208201905092915050565b60006102a3826103ad565b91506102ae836103ad565b9250827fffffffffffffffffffffffffffffffffffffffffffffffffffffffffffffffff038211156102e3576102e26103b7565b5b828201905092915050565b60006102f9826103ad565b9150610304836103ad565b925082610314576103136103e6565b5b828204905092915050565b600061032a826103ad565b9150610335836103ad565b9250817fffffffffffffffffffffffffffffffffffffffffffffffffffffffffffffffff048311821515161561036e5761036d6103b7565b5b828202905092915050565b6000610384826103ad565b915061038f836103ad565b9250828210156103a2576103a16103b7565b5b828203905092915050565b6000819050919050565b7f4e487b7100000000000000000000000000000000000000000000000000000000600052601160045260246000fd5b7f4e487b7100000000000000000000000000000000000000000000000000000000600052601260045260246000fd5b61041e816103ad565b811461042957600080fd5b5056fea26469706673582212201312b02f718187581bd7ff94796c75142a9a61165f82f80bf37a8c299a885af164736f6c63430008000033",
  "immutableReferences": {},
  "source": "// SPDX-License-Identifier: MIT\npragma solidity ^0.8.0;\n\ncontract BasicMath {\n\n    // Addition\n    function add(uint256 a, uint256 b) public pure returns (uint256) {\n        return a + b;\n    }\n\n    // Subtraction\n    function subtract(uint256 a, uint256 b) public pure returns (uint256) {\n        return a - b;\n    }\n\n    // Multiplication\n    function multiply(uint256 a, uint256 b) public pure returns (uint256) {\n        return a * b;\n    }\n\n    // Division\n    function divide(uint256 a, uint256 b) public pure returns (uint256) {\n        require(b != 0, \"Division by zero is not allowed.\");\n        return a / b;\n    }\n}\n",
  "sourcePath": "C:\\Users\\Bablu\\Desktop\\New folder\\1\\contracts\\BasicMath.sol",
  "compiler": {
    "name": "solc",
    "version": "0.8.0+commit.c7dfd78e.Emscripten.clang"
  },
  "schemaVersion": "3.4.16",
  "updatedAt": "2024-06-27T21:07:45.906Z",
  "networkType": "ethereum",
  "devdoc": {
    "kind": "dev",
    "methods": {},
    "version": 1
  },
  "userdoc": {
    "kind": "user",
    "methods": {},
    "version": 1
  }
}